{
  "contractName": "TicketFactory",
  "abi": [
    {
      "inputs": [],
      "stateMutability": "nonpayable",
      "type": "constructor"
    },
    {
      "anonymous": false,
      "inputs": [
        {
          "indexed": true,
          "internalType": "uint256",
          "name": "id",
          "type": "uint256"
        },
        {
          "indexed": false,
          "internalType": "string",
          "name": "eventName",
          "type": "string"
        }
      ],
      "name": "EventCreated",
      "type": "event"
    },
    {
      "inputs": [
        {
          "internalType": "uint256",
          "name": "",
          "type": "uint256"
        }
      ],
      "name": "eventsList",
      "outputs": [
        {
          "internalType": "address",
          "name": "eventAddress",
          "type": "address"
        },
        {
          "internalType": "string",
          "name": "eventName",
          "type": "string"
        },
        {
          "internalType": "string",
          "name": "eventDescription",
          "type": "string"
        },
        {
          "internalType": "string",
          "name": "eventPosterURI",
          "type": "string"
        },
        {
          "internalType": "string",
          "name": "ticketSymbol",
          "type": "string"
        },
        {
          "internalType": "uint256",
          "name": "ticketPrice",
          "type": "uint256"
        },
        {
          "internalType": "uint256",
          "name": "startAt",
          "type": "uint256"
        },
        {
          "internalType": "uint256",
          "name": "eventDuration",
          "type": "uint256"
        },
        {
          "internalType": "uint256",
          "name": "maxTickets",
          "type": "uint256"
        },
        {
          "internalType": "bool",
          "name": "isExists",
          "type": "bool"
        }
      ],
      "stateMutability": "view",
      "type": "function",
      "constant": true
    },
    {
      "inputs": [],
      "name": "owner",
      "outputs": [
        {
          "internalType": "address payable",
          "name": "",
          "type": "address"
        }
      ],
      "stateMutability": "view",
      "type": "function",
      "constant": true
    },
    {
      "inputs": [
        {
          "internalType": "uint256",
          "name": "",
          "type": "uint256"
        }
      ],
      "name": "ticketOffices",
      "outputs": [
        {
          "internalType": "contract TicketOffice",
          "name": "",
          "type": "address"
        }
      ],
      "stateMutability": "view",
      "type": "function",
      "constant": true
    },
    {
      "inputs": [
        {
          "internalType": "string",
          "name": "_eventName",
          "type": "string"
        },
        {
          "internalType": "string",
          "name": "_eventDescription",
          "type": "string"
        },
        {
          "internalType": "string",
          "name": "_eventPosterURI",
          "type": "string"
        },
        {
          "internalType": "string",
          "name": "_ticketSymbol",
          "type": "string"
        },
        {
          "internalType": "uint256",
          "name": "_ticketPrice",
          "type": "uint256"
        },
        {
          "internalType": "uint256",
          "name": "_startAt",
          "type": "uint256"
        },
        {
          "internalType": "uint256",
          "name": "_eventDuration",
          "type": "uint256"
        },
        {
          "internalType": "uint256",
          "name": "_maxTickets",
          "type": "uint256"
        }
      ],
      "name": "addEvent",
      "outputs": [],
      "stateMutability": "nonpayable",
      "type": "function"
    },
    {
      "inputs": [],
      "name": "countEvents",
      "outputs": [
        {
          "internalType": "uint256",
          "name": "",
          "type": "uint256"
        }
      ],
      "stateMutability": "view",
      "type": "function",
      "constant": true
    }
  ],
  "bytecode": "0x608060405234801561001057600080fd5b5033600260006101000a81548173ffffffffffffffffffffffffffffffffffffffff021916908373ffffffffffffffffffffffffffffffffffffffff16021790555061477e806100616000396000f3fe60806040523480156200001157600080fd5b50600436106200005e5760003560e01c80634837a7d81462000063578063560081aa14620000835780638da5cb5b146200033b578063af0b66461462000387578063f087c8eb14620003f8575b600080fd5b6200006d6200064c565b6040518082815260200191505060405180910390f35b6200033960048036036101008110156200009c57600080fd5b8101908080359060200190640100000000811115620000ba57600080fd5b820183602082011115620000cd57600080fd5b80359060200191846001830284011164010000000083111715620000f057600080fd5b91908080601f016020809104026020016040519081016040528093929190818152602001838380828437600081840152601f19601f820116905080830192505050505050509192919290803590602001906401000000008111156200015457600080fd5b8201836020820111156200016757600080fd5b803590602001918460018302840111640100000000831117156200018a57600080fd5b91908080601f016020809104026020016040519081016040528093929190818152602001838380828437600081840152601f19601f82011690508083019250505050505050919291929080359060200190640100000000811115620001ee57600080fd5b8201836020820111156200020157600080fd5b803590602001918460018302840111640100000000831117156200022457600080fd5b91908080601f016020809104026020016040519081016040528093929190818152602001838380828437600081840152601f19601f820116905080830192505050505050509192919290803590602001906401000000008111156200028857600080fd5b8201836020820111156200029b57600080fd5b80359060200191846001830284011164010000000083111715620002be57600080fd5b91908080601f016020809104026020016040519081016040528093929190818152602001838380828437600081840152601f19601f8201169050808301925050505050505091929192908035906020019092919080359060200190929190803590602001909291908035906020019092919050505062000659565b005b6200034562000b99565b604051808273ffffffffffffffffffffffffffffffffffffffff1673ffffffffffffffffffffffffffffffffffffffff16815260200191505060405180910390f35b620003b6600480360360208110156200039f57600080fd5b810190808035906020019092919050505062000bbf565b604051808273ffffffffffffffffffffffffffffffffffffffff1673ffffffffffffffffffffffffffffffffffffffff16815260200191505060405180910390f35b62000427600480360360208110156200041057600080fd5b810190808035906020019092919050505062000bf2565b604051808b73ffffffffffffffffffffffffffffffffffffffff1673ffffffffffffffffffffffffffffffffffffffff168152602001806020018060200180602001806020018a81526020018981526020018881526020018781526020018615151515815260200185810385528e818151815260200191508051906020019080838360005b83811015620004c9578082015181840152602081019050620004ac565b50505050905090810190601f168015620004f75780820380516001836020036101000a031916815260200191505b5085810384528d818151815260200191508051906020019080838360005b838110156200053257808201518184015260208101905062000515565b50505050905090810190601f168015620005605780820380516001836020036101000a031916815260200191505b5085810383528c818151815260200191508051906020019080838360005b838110156200059b5780820151818401526020810190506200057e565b50505050905090810190601f168015620005c95780820380516001836020036101000a031916815260200191505b5085810382528b818151815260200191508051906020019080838360005b8381101562000604578082015181840152602081019050620005e7565b50505050905090810190601f168015620006325780820380516001836020036101000a031916815260200191505b509e50505050505050505050505050505060405180910390f35b6000600380549050905090565b600260009054906101000a900473ffffffffffffffffffffffffffffffffffffffff1673ffffffffffffffffffffffffffffffffffffffff163373ffffffffffffffffffffffffffffffffffffffff16146200071d576040517f08c379a000000000000000000000000000000000000000000000000000000000815260040180806020018281038252600a8152602001807f4f776e6572206f6e6c790000000000000000000000000000000000000000000081525060200191505060405180910390fd5b60006200072b600062000ef1565b905060003090506000600260009054906101000a900473ffffffffffffffffffffffffffffffffffffffff16828c8a8a88886040516200076b9062000f15565b808873ffffffffffffffffffffffffffffffffffffffff1673ffffffffffffffffffffffffffffffffffffffff1681526020018773ffffffffffffffffffffffffffffffffffffffff1673ffffffffffffffffffffffffffffffffffffffff1681526020018060200180602001868152602001858152602001848152602001838103835288818151815260200191508051906020019080838360005b838110156200082457808201518184015260208101905062000807565b50505050905090810190601f168015620008525780820380516001836020036101000a031916815260200191505b50838103825287818151815260200191508051906020019080838360005b838110156200088d57808201518184015260208101905062000870565b50505050905090810190601f168015620008bb5780820380516001836020036101000a031916815260200191505b509950505050505050505050604051809103906000f080158015620008e4573d6000803e3d6000fd5b509050806004600085815260200190815260200160002060006101000a81548173ffffffffffffffffffffffffffffffffffffffff021916908373ffffffffffffffffffffffffffffffffffffffff1602179055506200094362000f23565b6040518061014001604052808373ffffffffffffffffffffffffffffffffffffffff1681526020018d81526020018c81526020018b81526020018a815260200189815260200188815260200187815260200186815260200160011515815250905060038190806001815401808255809150506001900390600052602060002090600a020160009091909190915060008201518160000160006101000a81548173ffffffffffffffffffffffffffffffffffffffff021916908373ffffffffffffffffffffffffffffffffffffffff160217905550602082015181600101908051906020019062000a3592919062000f8e565b50604082015181600201908051906020019062000a5492919062000f8e565b50606082015181600301908051906020019062000a7392919062000f8e565b50608082015181600401908051906020019062000a9292919062000f8e565b5060a0820151816005015560c0820151816006015560e0820151816007015561010082015181600801556101208201518160090160006101000a81548160ff0219169083151502179055505050837f9ce3d6db707bca4ba0eabed8fba1e2c013a1c0bc1132a764170a7854d198c73d8d6040518080602001828103825283818151815260200191508051906020019080838360005b8381101562000b4457808201518184015260208101905062000b27565b50505050905090810190601f16801562000b725780820380516001836020036101000a031916815260200191505b509250505060405180910390a262000b8b600062000eff565b505050505050505050505050565b600260009054906101000a900473ffffffffffffffffffffffffffffffffffffffff1681565b60046020528060005260406000206000915054906101000a900473ffffffffffffffffffffffffffffffffffffffff1681565b6003818154811062000c0057fe5b90600052602060002090600a02016000915090508060000160009054906101000a900473ffffffffffffffffffffffffffffffffffffffff1690806001018054600181600116156101000203166002900480601f01602080910402602001604051908101604052809291908181526020018280546001816001161561010002031660029004801562000cd65780601f1062000caa5761010080835404028352916020019162000cd6565b820191906000526020600020905b81548152906001019060200180831162000cb857829003601f168201915b505050505090806002018054600181600116156101000203166002900480601f01602080910402602001604051908101604052809291908181526020018280546001816001161561010002031660029004801562000d785780601f1062000d4c5761010080835404028352916020019162000d78565b820191906000526020600020905b81548152906001019060200180831162000d5a57829003601f168201915b505050505090806003018054600181600116156101000203166002900480601f01602080910402602001604051908101604052809291908181526020018280546001816001161561010002031660029004801562000e1a5780601f1062000dee5761010080835404028352916020019162000e1a565b820191906000526020600020905b81548152906001019060200180831162000dfc57829003601f168201915b505050505090806004018054600181600116156101000203166002900480601f01602080910402602001604051908101604052809291908181526020018280546001816001161561010002031660029004801562000ebc5780601f1062000e905761010080835404028352916020019162000ebc565b820191906000526020600020905b81548152906001019060200180831162000e9e57829003601f168201915b5050505050908060050154908060060154908060070154908060080154908060090160009054906101000a900460ff1690508a565b600081600001549050919050565b6001816000016000828254019250508190555050565b61370b806200103e83390190565b604051806101400160405280600073ffffffffffffffffffffffffffffffffffffffff16815260200160608152602001606081526020016060815260200160608152602001600081526020016000815260200160008152602001600081526020016000151581525090565b828054600181600116156101000203166002900490600052602060002090601f016020900481019282601f1062000fd157805160ff191683800117855562001002565b8280016001018555821562001002579182015b828111156200100157825182559160200191906001019062000fe4565b5b50905062001011919062001015565b5090565b6200103a91905b80821115620010365760008160009055506001016200101c565b5090565b9056fe60806040526000600f60006101000a81548160ff0219169083151502179055503480156200002c57600080fd5b506040516200370b3803806200370b833981810160405260e08110156200005257600080fd5b810190808051906020019092919080519060200190929190805160405193929190846401000000008211156200008757600080fd5b838201915060208201858111156200009e57600080fd5b8251866001820283011164010000000082111715620000bc57600080fd5b8083526020830192505050908051906020019080838360005b83811015620000f2578082015181840152602081019050620000d5565b50505050905090810190601f168015620001205780820380516001836020036101000a031916815260200191505b50604052602001805160405193929190846401000000008211156200014457600080fd5b838201915060208201858111156200015b57600080fd5b82518660018202830111640100000000821117156200017957600080fd5b8083526020830192505050908051906020019080838360005b83811015620001af57808201518184015260208101905062000192565b50505050905090810190601f168015620001dd5780820380516001836020036101000a031916815260200191505b5060405260200180519060200190929190805190602001909291908051906020019092919050505084846200021f6301ffc9a760e01b6200033f60201b60201c565b81600690805190602001906200023792919062000448565b5080600790805190602001906200025092919062000448565b50620002696380ac58cd60e01b6200033f60201b60201c565b62000281635b5e139f60e01b6200033f60201b60201c565b6200029963780e9d6360e01b6200033f60201b60201c565b505086600a60006101000a81548173ffffffffffffffffffffffffffffffffffffffff021916908373ffffffffffffffffffffffffffffffffffffffff16021790555085600b60006101000a81548173ffffffffffffffffffffffffffffffffffffffff021916908373ffffffffffffffffffffffffffffffffffffffff16021790555082600c8190555081600d8190555080600e8190555050505050505050620004f7565b63ffffffff60e01b817bffffffffffffffffffffffffffffffffffffffffffffffffffffffff19161415620003dc576040517f08c379a000000000000000000000000000000000000000000000000000000000815260040180806020018281038252601c8152602001807f4552433136353a20696e76616c696420696e746572666163652069640000000081525060200191505060405180910390fd5b6001600080837bffffffffffffffffffffffffffffffffffffffffffffffffffffffff19167bffffffffffffffffffffffffffffffffffffffffffffffffffffffff1916815260200190815260200160002060006101000a81548160ff02191690831515021790555050565b828054600181600116156101000203166002900490600052602060002090601f016020900481019282601f106200048b57805160ff1916838001178555620004bc565b82800160010185558215620004bc579182015b82811115620004bb5782518255916020019190600101906200049e565b5b509050620004cb9190620004cf565b5090565b620004f491905b80821115620004f0576000816000905550600101620004d6565b5090565b90565b61320480620005076000396000f3fe6080604052600436106101815760003560e01c806350b44712116100d15780639716bff51161008a578063b88d4fde11610064578063b88d4fde1461096f578063c45a015514610a81578063c87b56dd14610ad8578063e985e9c514610b8c57610181565b80639716bff5146108bc5780639b894703146108e7578063a22cb4651461091257610181565b806350b44712146105dc5780636352211e146106655780636c0360eb146106e057806370a08231146107705780638da5cb5b146107d557806395d89b411461082c57610181565b80631249c58b1161013e57806323b872dd1161011857806323b872dd146104285780632f745c59146104a357806342842e0e146105125780634f6ccce71461058d57610181565b80631249c58b146103b857806315981650146103c257806318160ddd146103fd57610181565b806301ffc9a71461018657806302c7e7af146101f857806306fdde0314610227578063081812fc146102b7578063095ea7b3146103325780631209b1f61461038d575b600080fd5b34801561019257600080fd5b506101de600480360360208110156101a957600080fd5b8101908080357bffffffffffffffffffffffffffffffffffffffffffffffffffffffff19169060200190929190505050610c15565b604051808215151515815260200191505060405180910390f35b34801561020457600080fd5b5061020d610c7c565b604051808215151515815260200191505060405180910390f35b34801561023357600080fd5b5061023c610c8f565b6040518080602001828103825283818151815260200191508051906020019080838360005b8381101561027c578082015181840152602081019050610261565b50505050905090810190601f1680156102a95780820380516001836020036101000a031916815260200191505b509250505060405180910390f35b3480156102c357600080fd5b506102f0600480360360208110156102da57600080fd5b8101908080359060200190929190505050610d31565b604051808273ffffffffffffffffffffffffffffffffffffffff1673ffffffffffffffffffffffffffffffffffffffff16815260200191505060405180910390f35b34801561033e57600080fd5b5061038b6004803603604081101561035557600080fd5b81019080803573ffffffffffffffffffffffffffffffffffffffff16906020019092919080359060200190929190505050610dcc565b005b34801561039957600080fd5b506103a2610f10565b6040518082815260200191505060405180910390f35b6103c0610f16565b005b3480156103ce57600080fd5b506103fb600480360360208110156103e557600080fd5b8101908080359060200190929190505050611230565b005b34801561040957600080fd5b506104126112fd565b6040518082815260200191505060405180910390f35b34801561043457600080fd5b506104a16004803603606081101561044b57600080fd5b81019080803573ffffffffffffffffffffffffffffffffffffffff169060200190929190803573ffffffffffffffffffffffffffffffffffffffff1690602001909291908035906020019092919050505061130e565b005b3480156104af57600080fd5b506104fc600480360360408110156104c657600080fd5b81019080803573ffffffffffffffffffffffffffffffffffffffff16906020019092919080359060200190929190505050611384565b6040518082815260200191505060405180910390f35b34801561051e57600080fd5b5061058b6004803603606081101561053557600080fd5b81019080803573ffffffffffffffffffffffffffffffffffffffff169060200190929190803573ffffffffffffffffffffffffffffffffffffffff169060200190929190803590602001909291905050506113df565b005b34801561059957600080fd5b506105c6600480360360208110156105b057600080fd5b81019080803590602001909291905050506113ff565b6040518082815260200191505060405180910390f35b3480156105e857600080fd5b50610615600480360360208110156105ff57600080fd5b8101908080359060200190929190505050611422565b604051808481526020018381526020018273ffffffffffffffffffffffffffffffffffffffff1673ffffffffffffffffffffffffffffffffffffffff168152602001935050505060405180910390f35b34801561067157600080fd5b5061069e6004803603602081101561068857600080fd5b8101908080359060200190929190505050611479565b604051808273ffffffffffffffffffffffffffffffffffffffff1673ffffffffffffffffffffffffffffffffffffffff16815260200191505060405180910390f35b3480156106ec57600080fd5b506106f56114b0565b6040518080602001828103825283818151815260200191508051906020019080838360005b8381101561073557808201518184015260208101905061071a565b50505050905090810190601f1680156107625780820380516001836020036101000a031916815260200191505b509250505060405180910390f35b34801561077c57600080fd5b506107bf6004803603602081101561079357600080fd5b81019080803573ffffffffffffffffffffffffffffffffffffffff169060200190929190505050611552565b6040518082815260200191505060405180910390f35b3480156107e157600080fd5b506107ea611627565b604051808273ffffffffffffffffffffffffffffffffffffffff1673ffffffffffffffffffffffffffffffffffffffff16815260200191505060405180910390f35b34801561083857600080fd5b5061084161164d565b6040518080602001828103825283818151815260200191508051906020019080838360005b83811015610881578082015181840152602081019050610866565b50505050905090810190601f1680156108ae5780820380516001836020036101000a031916815260200191505b509250505060405180910390f35b3480156108c857600080fd5b506108d16116ef565b6040518082815260200191505060405180910390f35b3480156108f357600080fd5b506108fc6116f5565b6040518082815260200191505060405180910390f35b34801561091e57600080fd5b5061096d6004803603604081101561093557600080fd5b81019080803573ffffffffffffffffffffffffffffffffffffffff1690602001909291908035151590602001909291905050506116fb565b005b34801561097b57600080fd5b50610a7f6004803603608081101561099257600080fd5b81019080803573ffffffffffffffffffffffffffffffffffffffff169060200190929190803573ffffffffffffffffffffffffffffffffffffffff16906020019092919080359060200190929190803590602001906401000000008111156109f957600080fd5b820183602082011115610a0b57600080fd5b80359060200191846001830284011164010000000083111715610a2d57600080fd5b91908080601f016020809104026020016040519081016040528093929190818152602001838380828437600081840152601f19601f8201169050808301925050505050505091929192905050506118b3565b005b348015610a8d57600080fd5b50610a9661192b565b604051808273ffffffffffffffffffffffffffffffffffffffff1673ffffffffffffffffffffffffffffffffffffffff16815260200191505060405180910390f35b348015610ae457600080fd5b50610b1160048036036020811015610afb57600080fd5b8101908080359060200190929190505050611951565b6040518080602001828103825283818151815260200191508051906020019080838360005b83811015610b51578082015181840152602081019050610b36565b50505050905090810190601f168015610b7e5780820380516001836020036101000a031916815260200191505b509250505060405180910390f35b348015610b9857600080fd5b50610bfb60048036036040811015610baf57600080fd5b81019080803573ffffffffffffffffffffffffffffffffffffffff169060200190929190803573ffffffffffffffffffffffffffffffffffffffff169060200190929190505050611c3a565b604051808215151515815260200191505060405180910390f35b6000806000837bffffffffffffffffffffffffffffffffffffffffffffffffffffffff19167bffffffffffffffffffffffffffffffffffffffffffffffffffffffff1916815260200190815260200160002060009054906101000a900460ff169050919050565b600f60009054906101000a900460ff1681565b606060068054600181600116156101000203166002900480601f016020809104026020016040519081016040528092919081815260200182805460018160011615610100020316600290048015610d275780601f10610cfc57610100808354040283529160200191610d27565b820191906000526020600020905b815481529060010190602001808311610d0a57829003601f168201915b5050505050905090565b6000610d3c82611cce565b610d91576040517f08c379a000000000000000000000000000000000000000000000000000000000815260040180806020018281038252602c8152602001806130f9602c913960400191505060405180910390fd5b6004600083815260200190815260200160002060009054906101000a900473ffffffffffffffffffffffffffffffffffffffff169050919050565b6000610dd782611479565b90508073ffffffffffffffffffffffffffffffffffffffff168373ffffffffffffffffffffffffffffffffffffffff161415610e5e576040517f08c379a000000000000000000000000000000000000000000000000000000000815260040180806020018281038252602181526020018061317d6021913960400191505060405180910390fd5b8073ffffffffffffffffffffffffffffffffffffffff16610e7d611ceb565b73ffffffffffffffffffffffffffffffffffffffff161480610eac5750610eab81610ea6611ceb565b611c3a565b5b610f01576040517f08c379a000000000000000000000000000000000000000000000000000000000815260040180806020018281038252603881526020018061304c6038913960400191505060405180910390fd5b610f0b8383611cf3565b505050565b600c5481565b600c543414610f8d576040517f08c379a000000000000000000000000000000000000000000000000000000000815260040180806020018281038252600b8152602001807f57726f6e672076616c756500000000000000000000000000000000000000000081525060200191505060405180910390fd5b600f60009054906101000a900460ff1615611010576040517f08c379a000000000000000000000000000000000000000000000000000000000815260040180806020018281038252600c8152602001807f5469636b65747320736f6c64000000000000000000000000000000000000000081525060200191505060405180910390fd5b61101a6010611dac565b60006110266010611dc2565b9050600a60009054906101000a900473ffffffffffffffffffffffffffffffffffffffff1673ffffffffffffffffffffffffffffffffffffffff166108fc349081150290604051600060405180830381858888f19350505050158015611090573d6000803e3d6000fd5b5061109b3382611dd0565b6110a3612f4a565b6040518060600160405280838152602001600e5481526020013373ffffffffffffffffffffffffffffffffffffffff1681525090506011819080600181540180825580915050600190039060005260206000209060030201600090919091909150600082015181600001556020820151816001015560408201518160020160006101000a81548173ffffffffffffffffffffffffffffffffffffffff021916908373ffffffffffffffffffffffffffffffffffffffff1602179055505050817fec7839b014d79286d210bb70d0ec14b0fe8c6b581a086e21eb5aa1ea2ef528f033604051808273ffffffffffffffffffffffffffffffffffffffff1673ffffffffffffffffffffffffffffffffffffffff16815260200191505060405180910390a2600d5482141561122c576001600f60006101000a81548160ff0219169083151502179055507ff6acd85f0b35db26a981320acb3e23b6b638f9bbf413b4243677f421076e7d7542600d54604051808381526020018281526020019250505060405180910390a15b5050565b600a60009054906101000a900473ffffffffffffffffffffffffffffffffffffffff1673ffffffffffffffffffffffffffffffffffffffff163373ffffffffffffffffffffffffffffffffffffffff16146112f3576040517f08c379a000000000000000000000000000000000000000000000000000000000815260040180806020018281038252600a8152602001807f4f776e6572206f6e6c790000000000000000000000000000000000000000000081525060200191505060405180910390fd5b80600c8190555050565b60006113096002611fc4565b905090565b61131f611319611ceb565b82611fd9565b611374576040517f08c379a000000000000000000000000000000000000000000000000000000000815260040180806020018281038252603181526020018061319e6031913960400191505060405180910390fd5b61137f8383836120cd565b505050565b60006113d782600160008673ffffffffffffffffffffffffffffffffffffffff1673ffffffffffffffffffffffffffffffffffffffff16815260200190815260200160002061231090919063ffffffff16565b905092915050565b6113fa838383604051806020016040528060008152506118b3565b505050565b60008061141683600261232a90919063ffffffff16565b50905080915050919050565b6011818154811061142f57fe5b90600052602060002090600302016000915090508060000154908060010154908060020160009054906101000a900473ffffffffffffffffffffffffffffffffffffffff16905083565b60006114a9826040518060600160405280602981526020016130ae6029913960026123599092919063ffffffff16565b9050919050565b606060098054600181600116156101000203166002900480601f0160208091040260200160405190810160405280929190818152602001828054600181600116156101000203166002900480156115485780601f1061151d57610100808354040283529160200191611548565b820191906000526020600020905b81548152906001019060200180831161152b57829003601f168201915b5050505050905090565b60008073ffffffffffffffffffffffffffffffffffffffff168273ffffffffffffffffffffffffffffffffffffffff1614156115d9576040517f08c379a000000000000000000000000000000000000000000000000000000000815260040180806020018281038252602a815260200180613084602a913960400191505060405180910390fd5b611620600160008473ffffffffffffffffffffffffffffffffffffffff1673ffffffffffffffffffffffffffffffffffffffff168152602001908152602001600020612378565b9050919050565b600a60009054906101000a900473ffffffffffffffffffffffffffffffffffffffff1681565b606060078054600181600116156101000203166002900480601f0160208091040260200160405190810160405280929190818152602001828054600181600116156101000203166002900480156116e55780601f106116ba576101008083540402835291602001916116e5565b820191906000526020600020905b8154815290600101906020018083116116c857829003601f168201915b5050505050905090565b600e5481565b600d5481565b611703611ceb565b73ffffffffffffffffffffffffffffffffffffffff168273ffffffffffffffffffffffffffffffffffffffff1614156117a4576040517f08c379a00000000000000000000000000000000000000000000000000000000081526004018080602001828103825260198152602001807f4552433732313a20617070726f766520746f2063616c6c65720000000000000081525060200191505060405180910390fd5b80600560006117b1611ceb565b73ffffffffffffffffffffffffffffffffffffffff1673ffffffffffffffffffffffffffffffffffffffff16815260200190815260200160002060008473ffffffffffffffffffffffffffffffffffffffff1673ffffffffffffffffffffffffffffffffffffffff16815260200190815260200160002060006101000a81548160ff0219169083151502179055508173ffffffffffffffffffffffffffffffffffffffff1661185e611ceb565b73ffffffffffffffffffffffffffffffffffffffff167f17307eab39ab6107e8899845ad3d59bd9653f200f220920489ca2b5937696c3183604051808215151515815260200191505060405180910390a35050565b6118c46118be611ceb565b83611fd9565b611919576040517f08c379a000000000000000000000000000000000000000000000000000000000815260040180806020018281038252603181526020018061319e6031913960400191505060405180910390fd5b6119258484848461238d565b50505050565b600b60009054906101000a900473ffffffffffffffffffffffffffffffffffffffff1681565b606061195c82611cce565b6119b1576040517f08c379a000000000000000000000000000000000000000000000000000000000815260040180806020018281038252602f81526020018061314e602f913960400191505060405180910390fd5b6060600860008481526020019081526020016000208054600181600116156101000203166002900480601f016020809104026020016040519081016040528092919081815260200182805460018160011615610100020316600290048015611a5a5780601f10611a2f57610100808354040283529160200191611a5a565b820191906000526020600020905b815481529060010190602001808311611a3d57829003601f168201915b50505050509050600060098054600181600116156101000203166002900490501415611a895780915050611c35565b600081511115611b62576009816040516020018083805460018160011615610100020316600290048015611af45780601f10611ad2576101008083540402835291820191611af4565b820191906000526020600020905b815481529060010190602001808311611ae0575b505082805190602001908083835b60208310611b255780518252602082019150602081019050602083039250611b02565b6001836020036101000a03801982511681845116808217855250505050505090500192505050604051602081830303815290604052915050611c35565b6009611b6d846123ff565b6040516020018083805460018160011615610100020316600290048015611bcb5780601f10611ba9576101008083540402835291820191611bcb565b820191906000526020600020905b815481529060010190602001808311611bb7575b505082805190602001908083835b60208310611bfc5780518252602082019150602081019050602083039250611bd9565b6001836020036101000a038019825116818451168082178552505050505050905001925050506040516020818303038152906040529150505b919050565b6000600560008473ffffffffffffffffffffffffffffffffffffffff1673ffffffffffffffffffffffffffffffffffffffff16815260200190815260200160002060008373ffffffffffffffffffffffffffffffffffffffff1673ffffffffffffffffffffffffffffffffffffffff16815260200190815260200160002060009054906101000a900460ff16905092915050565b6000611ce482600261252f90919063ffffffff16565b9050919050565b600033905090565b816004600083815260200190815260200160002060006101000a81548173ffffffffffffffffffffffffffffffffffffffff021916908373ffffffffffffffffffffffffffffffffffffffff160217905550808273ffffffffffffffffffffffffffffffffffffffff16611d6683611479565b73ffffffffffffffffffffffffffffffffffffffff167f8c5be1e5ebec7d5bd14f71427d1e84f3dd0314c0f7b2291e5b200ac8c7c3b92560405160405180910390a45050565b6001816000016000828254019250508190555050565b600081600001549050919050565b600073ffffffffffffffffffffffffffffffffffffffff168273ffffffffffffffffffffffffffffffffffffffff161415611e73576040517f08c379a00000000000000000000000000000000000000000000000000000000081526004018080602001828103825260208152602001807f4552433732313a206d696e7420746f20746865207a65726f206164647265737381525060200191505060405180910390fd5b611e7c81611cce565b15611eef576040517f08c379a000000000000000000000000000000000000000000000000000000000815260040180806020018281038252601c8152602001807f4552433732313a20746f6b656e20616c7265616479206d696e7465640000000081525060200191505060405180910390fd5b611efb60008383612549565b611f4c81600160008573ffffffffffffffffffffffffffffffffffffffff1673ffffffffffffffffffffffffffffffffffffffff16815260200190815260200160002061254e90919063ffffffff16565b50611f63818360026125689092919063ffffffff16565b50808273ffffffffffffffffffffffffffffffffffffffff16600073ffffffffffffffffffffffffffffffffffffffff167fddf252ad1be2c89b69c2b068fc378daa952ba7f163c4a11628f55a4df523b3ef60405160405180910390a45050565b6000611fd28260000161259d565b9050919050565b6000611fe482611cce565b612039576040517f08c379a000000000000000000000000000000000000000000000000000000000815260040180806020018281038252602c815260200180613020602c913960400191505060405180910390fd5b600061204483611479565b90508073ffffffffffffffffffffffffffffffffffffffff168473ffffffffffffffffffffffffffffffffffffffff1614806120b357508373ffffffffffffffffffffffffffffffffffffffff1661209b84610d31565b73ffffffffffffffffffffffffffffffffffffffff16145b806120c457506120c38185611c3a565b5b91505092915050565b8273ffffffffffffffffffffffffffffffffffffffff166120ed82611479565b73ffffffffffffffffffffffffffffffffffffffff1614612159576040517f08c379a00000000000000000000000000000000000000000000000000000000081526004018080602001828103825260298152602001806131256029913960400191505060405180910390fd5b600073ffffffffffffffffffffffffffffffffffffffff168273ffffffffffffffffffffffffffffffffffffffff1614156121df576040517f08c379a0000000000000000000000000000000000000000000000000000000008152600401808060200182810382526024815260200180612fd66024913960400191505060405180910390fd5b6121ea838383612549565b6121f5600082611cf3565b61224681600160008673ffffffffffffffffffffffffffffffffffffffff1673ffffffffffffffffffffffffffffffffffffffff1681526020019081526020016000206125ae90919063ffffffff16565b5061229881600160008573ffffffffffffffffffffffffffffffffffffffff1673ffffffffffffffffffffffffffffffffffffffff16815260200190815260200160002061254e90919063ffffffff16565b506122af818360026125689092919063ffffffff16565b50808273ffffffffffffffffffffffffffffffffffffffff168473ffffffffffffffffffffffffffffffffffffffff167fddf252ad1be2c89b69c2b068fc378daa952ba7f163c4a11628f55a4df523b3ef60405160405180910390a4505050565b600061231f83600001836125c8565b60001c905092915050565b60008060008061233d866000018661264b565b915091508160001c8160001c8090509350935050509250929050565b600061236c846000018460001b846126e4565b60001c90509392505050565b6000612386826000016127da565b9050919050565b6123988484846120cd565b6123a4848484846127eb565b6123f9576040517f08c379a0000000000000000000000000000000000000000000000000000000008152600401808060200182810382526032815260200180612fa46032913960400191505060405180910390fd5b50505050565b60606000821415612447576040518060400160405280600181526020017f3000000000000000000000000000000000000000000000000000000000000000815250905061252a565b600082905060005b60008214612471578080600101915050600a828161246957fe5b04915061244f565b6060816040519080825280601f01601f1916602001820160405280156124a65781602001600182028036833780820191505090505b50905060006001830390508593505b6000841461252257600a84816124c757fe5b0660300160f81b828280600190039350815181106124e157fe5b60200101907effffffffffffffffffffffffffffffffffffffffffffffffffffffffffffff1916908160001a905350600a848161251a57fe5b0493506124b5565b819450505050505b919050565b6000612541836000018360001b612a30565b905092915050565b505050565b6000612560836000018360001b612a53565b905092915050565b6000612594846000018460001b8473ffffffffffffffffffffffffffffffffffffffff1660001b612ac3565b90509392505050565b600081600001805490509050919050565b60006125c0836000018360001b612b9f565b905092915050565b600081836000018054905011612629576040517f08c379a0000000000000000000000000000000000000000000000000000000008152600401808060200182810382526022815260200180612f826022913960400191505060405180910390fd5b82600001828154811061263857fe5b9060005260206000200154905092915050565b600080828460000180549050116126ad576040517f08c379a00000000000000000000000000000000000000000000000000000000081526004018080602001828103825260228152602001806130d76022913960400191505060405180910390fd5b60008460000184815481106126be57fe5b906000526020600020906002020190508060000154816001015492509250509250929050565b600080846001016000858152602001908152602001600020549050600081141583906127ab576040517f08c379a00000000000000000000000000000000000000000000000000000000081526004018080602001828103825283818151815260200191508051906020019080838360005b83811015612770578082015181840152602081019050612755565b50505050905090810190601f16801561279d5780820380516001836020036101000a031916815260200191505b509250505060405180910390fd5b508460000160018203815481106127be57fe5b9060005260206000209060020201600101549150509392505050565b600081600001805490509050919050565b600061280c8473ffffffffffffffffffffffffffffffffffffffff16612c87565b6128195760019050612a28565b60606129af63150b7a0260e01b61282e611ceb565b888787604051602401808573ffffffffffffffffffffffffffffffffffffffff1673ffffffffffffffffffffffffffffffffffffffff1681526020018473ffffffffffffffffffffffffffffffffffffffff1673ffffffffffffffffffffffffffffffffffffffff16815260200183815260200180602001828103825283818151815260200191508051906020019080838360005b838110156128de5780820151818401526020810190506128c3565b50505050905090810190601f16801561290b5780820380516001836020036101000a031916815260200191505b5095505050505050604051602081830303815290604052907bffffffffffffffffffffffffffffffffffffffffffffffffffffffff19166020820180517bffffffffffffffffffffffffffffffffffffffffffffffffffffffff8381831617835250505050604051806060016040528060328152602001612fa4603291398773ffffffffffffffffffffffffffffffffffffffff16612c9a9092919063ffffffff16565b905060008180602001905160208110156129c857600080fd5b8101908080519060200190929190505050905063150b7a0260e01b7bffffffffffffffffffffffffffffffffffffffffffffffffffffffff1916817bffffffffffffffffffffffffffffffffffffffffffffffffffffffff191614925050505b949350505050565b600080836001016000848152602001908152602001600020541415905092915050565b6000612a5f8383612cb2565b612ab8578260000182908060018154018082558091505060019003906000526020600020016000909190919091505582600001805490508360010160008481526020019081526020016000208190555060019050612abd565b600090505b92915050565b6000808460010160008581526020019081526020016000205490506000811415612b6a57846000016040518060400160405280868152602001858152509080600181540180825580915050600190039060005260206000209060020201600090919091909150600082015181600001556020820151816001015550508460000180549050856001016000868152602001908152602001600020819055506001915050612b98565b82856000016001830381548110612b7d57fe5b90600052602060002090600202016001018190555060009150505b9392505050565b60008083600101600084815260200190815260200160002054905060008114612c7b5760006001820390506000600186600001805490500390506000866000018281548110612bea57fe5b9060005260206000200154905080876000018481548110612c0757fe5b9060005260206000200181905550600183018760010160008381526020019081526020016000208190555086600001805480612c3f57fe5b60019003818190600052602060002001600090559055866001016000878152602001908152602001600020600090556001945050505050612c81565b60009150505b92915050565b600080823b905060008111915050919050565b6060612ca98484600085612cd5565b90509392505050565b600080836001016000848152602001908152602001600020541415905092915050565b606082471015612d30576040517f08c379a0000000000000000000000000000000000000000000000000000000008152600401808060200182810382526026815260200180612ffa6026913960400191505060405180910390fd5b612d3985612c87565b612dab576040517f08c379a000000000000000000000000000000000000000000000000000000000815260040180806020018281038252601d8152602001807f416464726573733a2063616c6c20746f206e6f6e2d636f6e747261637400000081525060200191505060405180910390fd5b600060608673ffffffffffffffffffffffffffffffffffffffff1685876040518082805190602001908083835b60208310612dfb5780518252602082019150602081019050602083039250612dd8565b6001836020036101000a03801982511681845116808217855250505050505090500191505060006040518083038185875af1925050503d8060008114612e5d576040519150601f19603f3d011682016040523d82523d6000602084013e612e62565b606091505b5091509150612e72828286612e7e565b92505050949350505050565b60608315612e8e57829050612f43565b600083511115612ea15782518084602001fd5b816040517f08c379a00000000000000000000000000000000000000000000000000000000081526004018080602001828103825283818151815260200191508051906020019080838360005b83811015612f08578082015181840152602081019050612eed565b50505050905090810190601f168015612f355780820380516001836020036101000a031916815260200191505b509250505060405180910390fd5b9392505050565b60405180606001604052806000815260200160008152602001600073ffffffffffffffffffffffffffffffffffffffff168152509056fe456e756d657261626c655365743a20696e646578206f7574206f6620626f756e64734552433732313a207472616e7366657220746f206e6f6e20455243373231526563656976657220696d706c656d656e7465724552433732313a207472616e7366657220746f20746865207a65726f2061646472657373416464726573733a20696e73756666696369656e742062616c616e636520666f722063616c6c4552433732313a206f70657261746f7220717565727920666f72206e6f6e6578697374656e7420746f6b656e4552433732313a20617070726f76652063616c6c6572206973206e6f74206f776e6572206e6f7220617070726f76656420666f7220616c6c4552433732313a2062616c616e636520717565727920666f7220746865207a65726f20616464726573734552433732313a206f776e657220717565727920666f72206e6f6e6578697374656e7420746f6b656e456e756d657261626c654d61703a20696e646578206f7574206f6620626f756e64734552433732313a20617070726f76656420717565727920666f72206e6f6e6578697374656e7420746f6b656e4552433732313a207472616e73666572206f6620746f6b656e2074686174206973206e6f74206f776e4552433732314d657461646174613a2055524920717565727920666f72206e6f6e6578697374656e7420746f6b656e4552433732313a20617070726f76616c20746f2063757272656e74206f776e65724552433732313a207472616e736665722063616c6c6572206973206e6f74206f776e6572206e6f7220617070726f766564a2646970667358221220b52606f23be33aacbdec8c0cba9a8b749e5bc7f162db956aa734bd3a1342a1a764736f6c63430006030033a26469706673582212202412d4888148d120e2185b646a84f124d8fe2bbfe2cbc745bd219aa6642bd35d64736f6c63430006030033",
  "source": "// SPDX-License-Identifier: MIT\r\npragma solidity >=0.6.0 <0.8.0;\r\n\r\nimport \"./Dependencies.sol\";\r\nimport \"./Ticket.sol\";\r\n\r\ncontract TicketFactory\r\n{\r\n    using Counters for Counters.Counter;\r\n\r\n    event EventCreated(uint indexed id, string eventName);\r\n\r\n    Counters.Counter private _eventsIds;\r\n    Counters.Counter private _contractsIds;\r\n\r\n    address payable public owner;\r\n\r\n    struct PublicEvent {\r\n        address eventAddress;\r\n        string eventName;\r\n        string eventDescription;\r\n        string eventPosterURI;\r\n        string ticketSymbol;\r\n        uint ticketPrice;\r\n        uint startAt;\r\n        uint eventDuration;\r\n        uint maxTickets;\r\n        bool isExists;\r\n    }\r\n\r\n    PublicEvent[] public eventsList;\r\n    mapping (uint => TicketOffice) public ticketOffices;\r\n\r\n    constructor() public {\r\n        owner = msg.sender;\r\n    }\r\n\r\n    modifier onlyOwner() {\r\n        require(msg.sender == owner, \"Owner only\");\r\n        _;\r\n    }\r\n\r\n    modifier eventExists(uint _eventID) {\r\n        require(eventsList[_eventID].isExists, \"Event not found\");\r\n        _;\r\n    }\r\n\r\n    function addEvent(\r\n        string memory _eventName,\r\n        string memory _eventDescription,\r\n        string memory _eventPosterURI,\r\n        string memory _ticketSymbol,\r\n        uint _ticketPrice,\r\n        uint _startAt,\r\n        uint _eventDuration,\r\n        uint _maxTickets\r\n    ) public onlyOwner {\r\n        uint eventID = _eventsIds.current();\r\n        address factory = address(this);\r\n        TicketOffice _ticketOffice = new TicketOffice(\r\n            owner, factory, _eventName, _ticketSymbol, _ticketPrice, _maxTickets, eventID\r\n        );\r\n        ticketOffices[eventID] = _ticketOffice;\r\n        PublicEvent memory newEvent = PublicEvent(\r\n            address(_ticketOffice),\r\n            _eventName,\r\n            _eventDescription,\r\n            _eventPosterURI,\r\n            _ticketSymbol,\r\n            _ticketPrice,\r\n            _startAt,\r\n            _eventDuration,\r\n            _maxTickets,\r\n            true\r\n        );\r\n        eventsList.push(newEvent);\r\n        emit EventCreated(eventID, _eventName);\r\n        _eventsIds.increment();\r\n    }\r\n\r\n    function countEvents() public view returns (uint) {\r\n        return eventsList.length;\r\n    }\r\n}\r\n",
  "sourcePath": "D:/projects/Ticket.Truffle/contracts/TicketFactory.sol",
  "compiler": {
    "name": "solc",
    "version": "0.6.3+commit.8dda9521.Emscripten.clang"
  },
  "schemaVersion": "3.3.3",
  "updatedAt": "2021-04-21T21:26:25.141Z",
  "networkType": "ethereum",
  "devdoc": {
    "methods": {}
  },
  "userdoc": {
    "methods": {}
  }
}